{
  "_format": "hh-sol-artifact-1",
  "contractName": "LocalHoarder",
  "sourceName": "contracts/localHoarder.sol",
  "abi": [
    {
      "inputs": [
        {
          "internalType": "address[]",
          "name": "_signedComputers",
          "type": "address[]"
        }
      ],
      "stateMutability": "nonpayable",
      "type": "constructor"
    },
    {
      "anonymous": false,
      "inputs": [
        {
          "indexed": false,
          "internalType": "uint256",
          "name": "gethBlockNumber",
          "type": "uint256"
        }
      ],
      "name": "allSignatureReceived",
      "type": "event"
    },
    {
      "anonymous": false,
      "inputs": [
        {
          "indexed": false,
          "internalType": "bytes",
          "name": "txData",
          "type": "bytes"
        },
        {
          "indexed": false,
          "internalType": "uint256",
          "name": "gethBlockNumber",
          "type": "uint256"
        }
      ],
      "name": "proposeNewBatchEvent",
      "type": "event"
    },
    {
      "inputs": [
        {
          "internalType": "address",
          "name": "",
          "type": "address"
        },
        {
          "internalType": "uint256",
          "name": "",
          "type": "uint256"
        }
      ],
      "name": "computerToUnsignedGethBlocks",
      "outputs": [
        {
          "internalType": "uint256",
          "name": "",
          "type": "uint256"
        }
      ],
      "stateMutability": "view",
      "type": "function"
    },
    {
      "inputs": [
        {
          "internalType": "uint256",
          "name": "gethBlockNumber",
          "type": "uint256"
        }
      ],
      "name": "getAllR",
      "outputs": [
        {
          "internalType": "bytes32[]",
          "name": "",
          "type": "bytes32[]"
        }
      ],
      "stateMutability": "view",
      "type": "function"
    },
    {
      "inputs": [
        {
          "internalType": "uint256",
          "name": "gethBlockNumber",
          "type": "uint256"
        }
      ],
      "name": "getAllS",
      "outputs": [
        {
          "internalType": "bytes32[]",
          "name": "",
          "type": "bytes32[]"
        }
      ],
      "stateMutability": "view",
      "type": "function"
    },
    {
      "inputs": [
        {
          "internalType": "uint256",
          "name": "gethBlockNumber",
          "type": "uint256"
        }
      ],
      "name": "getAllV",
      "outputs": [
        {
          "internalType": "uint8[]",
          "name": "",
          "type": "uint8[]"
        }
      ],
      "stateMutability": "view",
      "type": "function"
    },
    {
      "inputs": [],
      "name": "getGethBlocksToBeSend",
      "outputs": [
        {
          "internalType": "uint256[]",
          "name": "",
          "type": "uint256[]"
        }
      ],
      "stateMutability": "view",
      "type": "function"
    },
    {
      "inputs": [],
      "name": "getLeader",
      "outputs": [
        {
          "internalType": "uint256",
          "name": "",
          "type": "uint256"
        }
      ],
      "stateMutability": "view",
      "type": "function"
    },
    {
      "inputs": [
        {
          "internalType": "uint256",
          "name": "gethBlock",
          "type": "uint256"
        }
      ],
      "name": "getProposalTxDataFromGethBlock",
      "outputs": [
        {
          "internalType": "bytes",
          "name": "",
          "type": "bytes"
        }
      ],
      "stateMutability": "view",
      "type": "function"
    },
    {
      "inputs": [
        {
          "internalType": "bytes[]",
          "name": "txDataBatch",
          "type": "bytes[]"
        },
        {
          "internalType": "address[]",
          "name": "targetContractAddresses",
          "type": "address[]"
        }
      ],
      "name": "getTxDataBatch",
      "outputs": [
        {
          "internalType": "bytes",
          "name": "",
          "type": "bytes"
        }
      ],
      "stateMutability": "view",
      "type": "function"
    },
    {
      "inputs": [
        {
          "internalType": "address",
          "name": "computer",
          "type": "address"
        }
      ],
      "name": "getUnsignedGethBlocks",
      "outputs": [
        {
          "internalType": "uint256[]",
          "name": "",
          "type": "uint256[]"
        }
      ],
      "stateMutability": "view",
      "type": "function"
    },
    {
      "inputs": [
        {
          "internalType": "uint256",
          "name": "",
          "type": "uint256"
        },
        {
          "internalType": "uint256",
          "name": "",
          "type": "uint256"
        }
      ],
      "name": "gethBlockNumberToAllSignatures",
      "outputs": [
        {
          "internalType": "uint8",
          "name": "v",
          "type": "uint8"
        },
        {
          "internalType": "bytes32",
          "name": "r",
          "type": "bytes32"
        },
        {
          "internalType": "bytes32",
          "name": "s",
          "type": "bytes32"
        }
      ],
      "stateMutability": "view",
      "type": "function"
    },
    {
      "inputs": [
        {
          "internalType": "uint256",
          "name": "",
          "type": "uint256"
        }
      ],
      "name": "gethBlocksToBeSend",
      "outputs": [
        {
          "internalType": "uint256",
          "name": "",
          "type": "uint256"
        }
      ],
      "stateMutability": "view",
      "type": "function"
    },
    {
      "inputs": [
        {
          "internalType": "bytes[]",
          "name": "txDataBatch",
          "type": "bytes[]"
        },
        {
          "internalType": "address[]",
          "name": "targetContractAddresses",
          "type": "address[]"
        },
        {
          "internalType": "uint256",
          "name": "gethBlockNumber",
          "type": "uint256"
        }
      ],
      "name": "proposeNewBatch",
      "outputs": [
        {
          "internalType": "bytes",
          "name": "",
          "type": "bytes"
        }
      ],
      "stateMutability": "nonpayable",
      "type": "function"
    },
    {
      "inputs": [
        {
          "internalType": "address",
          "name": "computer",
          "type": "address"
        },
        {
          "internalType": "uint8",
          "name": "_v",
          "type": "uint8"
        },
        {
          "internalType": "bytes32",
          "name": "_r",
          "type": "bytes32"
        },
        {
          "internalType": "bytes32",
          "name": "_s",
          "type": "bytes32"
        },
        {
          "internalType": "uint256",
          "name": "gethBlockNumber",
          "type": "uint256"
        }
      ],
      "name": "sendSignature",
      "outputs": [
        {
          "internalType": "string",
          "name": "",
          "type": "string"
        }
      ],
      "stateMutability": "nonpayable",
      "type": "function"
    },
    {
      "inputs": [
        {
          "internalType": "uint256",
          "name": "gethBlock",
          "type": "uint256"
        }
      ],
      "name": "sentGethBlock",
      "outputs": [],
      "stateMutability": "nonpayable",
      "type": "function"
    },
    {
      "inputs": [
        {
          "internalType": "uint256",
          "name": "gethBlock",
          "type": "uint256"
        },
        {
          "internalType": "uint256",
          "name": "compId",
          "type": "uint256"
        }
      ],
      "name": "signalAbnomality",
      "outputs": [],
      "stateMutability": "nonpayable",
      "type": "function"
    },
    {
      "inputs": [
        {
          "internalType": "uint256",
          "name": "",
          "type": "uint256"
        }
      ],
      "name": "signedComputers",
      "outputs": [
        {
          "internalType": "address",
          "name": "",
          "type": "address"
        }
      ],
      "stateMutability": "view",
      "type": "function"
    }
  ],
  "bytecode": "0x608060405260056006556000600a556000600b553480156200002057600080fd5b506040516200263438038062002634833981810160405281019062000046919062000302565b80600790805190602001906200005e92919062000066565b505062000353565b828054828255906000526020600020908101928215620000e2579160200282015b82811115620000e15782518260006101000a81548173ffffffffffffffffffffffffffffffffffffffff021916908373ffffffffffffffffffffffffffffffffffffffff1602179055509160200191906001019062000087565b5b509050620000f19190620000f5565b5090565b5b8082111562000110576000816000905550600101620000f6565b5090565b6000604051905090565b600080fd5b600080fd5b600080fd5b6000601f19601f8301169050919050565b7f4e487b7100000000000000000000000000000000000000000000000000000000600052604160045260246000fd5b62000178826200012d565b810181811067ffffffffffffffff821117156200019a57620001996200013e565b5b80604052505050565b6000620001af62000114565b9050620001bd82826200016d565b919050565b600067ffffffffffffffff821115620001e057620001df6200013e565b5b602082029050602081019050919050565b600080fd5b600073ffffffffffffffffffffffffffffffffffffffff82169050919050565b60006200022382620001f6565b9050919050565b620002358162000216565b81146200024157600080fd5b50565b60008151905062000255816200022a565b92915050565b6000620002726200026c84620001c2565b620001a3565b90508083825260208201905060208402830185811115620002985762000297620001f1565b5b835b81811015620002c55780620002b0888262000244565b8452602084019350506020810190506200029a565b5050509392505050565b600082601f830112620002e757620002e662000128565b5b8151620002f98482602086016200025b565b91505092915050565b6000602082840312156200031b576200031a6200011e565b5b600082015167ffffffffffffffff8111156200033c576200033b62000123565b5b6200034a84828501620002cf565b91505092915050565b6122d180620003636000396000f3fe608060405234801561001057600080fd5b50600436106101005760003560e01c80635689b03711610097578063a59df71811610066578063a59df7181461030f578063ca36d4b81461033f578063d8042d3f1461036f578063e40bec5d1461038b57610100565b80635689b0371461024f5780636273cb4a1461027f5780637f9dde76146102af5780638ce5c795146102df57610100565b80634c051f14116100d35780634c051f141461019f5780635081329d146101bd57806350fc0a36146101ed578063511238d41461021f57610100565b80630eedd6791461010557806313e3994814610135578063163d060c146101515780634144142114610181575b600080fd5b61011f600480360381019061011a9190611338565b6103bb565b60405161012c919061142d565b60405180910390f35b61014f600480360381019061014a9190611338565b61050f565b005b61016b600480360381019061016691906114ad565b610604565b60405161017891906114fc565b60405180910390f35b610189610635565b60405161019691906115d5565b60405180910390f35b6101a761068d565b6040516101b491906114fc565b60405180910390f35b6101d760048036038101906101d29190611338565b610697565b6040516101e491906114fc565b60405180910390f35b610207600480360381019061020291906115f7565b6106bb565b60405161021693929190611662565b60405180910390f35b610239600480360381019061023491906116f1565b61070f565b6040516102469190611805565b60405180910390f35b61026960048036038101906102649190611338565b610acb565b604051610276919061187c565b60405180910390f35b61029960048036038101906102949190611338565b610b70565b6040516102a6919061142d565b60405180910390f35b6102c960048036038101906102c49190611338565b610cc4565b6040516102d691906118ad565b60405180910390f35b6102f960048036038101906102f49190611338565b610d03565b6040516103069190611986565b60405180910390f35b61032960048036038101906103249190611c86565b610e5f565b604051610336919061187c565b60405180910390f35b61035960048036038101906103549190611cfe565b610ee1565b60405161036691906115d5565b60405180910390f35b610389600480360381019061038491906115f7565b610f78565b005b6103a560048036038101906103a09190611d2b565b610fcc565b6040516103b2919061187c565b60405180910390f35b6060600060046000848152602001908152602001600020805480602002602001604051908101604052809291908181526020016000905b8282101561045557838290600052602060002090600302016040518060600160405290816000820160009054906101000a900460ff1660ff1660ff16815260200160018201548152602001600282015481525050815260200190600101906103f2565b5050505090506000815167ffffffffffffffff811115610478576104776119ad565b5b6040519080825280602002602001820160405280156104a65781602001602082028036833780820191505090505b50905060005b8251811015610504578281815181106104c8576104c7611db6565b5b6020026020010151602001518282815181106104e7576104e6611db6565b5b602002602001018181525050806104fd90611e14565b90506104ac565b508092505050919050565b60005b600880549050811015610600576008818154811061053357610532611db6565b5b906000526020600020015482036105ef5760008190505b600160088054905061055c9190611e5c565b8110156105c15760086001826105729190611e90565b8154811061058357610582611db6565b5b9060005260206000200154600882815481106105a2576105a1611db6565b5b9060005260206000200181905550806105ba90611e14565b905061054a565b5060088054806105d4576105d3611ee6565b5b60019003818190600052602060002001600090559055610600565b806105f990611e14565b9050610512565b5050565b6005602052816000526040600020818154811061062057600080fd5b90600052602060002001600091509150505481565b6060600880548060200260200160405190810160405280929190818152602001828054801561068357602002820191906000526020600020905b81548152602001906001019080831161066f575b5050505050905090565b6000600a54905090565b600881815481106106a757600080fd5b906000526020600020016000915090505481565b600460205281600052604060002081815481106106d757600080fd5b9060005260206000209060030201600091509150508060000160009054906101000a900460ff16908060010154908060020154905083565b6060600960008773ffffffffffffffffffffffffffffffffffffffff1673ffffffffffffffffffffffffffffffffffffffff168152602001908152602001600020600083815260200190815260200160002060009054906101000a900460ff16156107b1576040518060400160405280600e81526020017f616c7265616479205369676e65640000000000000000000000000000000000008152509050610ac2565b6001600960008873ffffffffffffffffffffffffffffffffffffffff1673ffffffffffffffffffffffffffffffffffffffff168152602001908152602001600020600084815260200190815260200160002060006101000a81548160ff0219169083151502179055506000600560008873ffffffffffffffffffffffffffffffffffffffff1673ffffffffffffffffffffffffffffffffffffffff168152602001908152602001600020905060005b818054905081101561094e57838282815481106108805761087f611db6565b5b90600052602060002001540361093d57600081905060008190505b600184805490506108ac9190611e5c565b81101561090f57836001826108c19190611e90565b815481106108d2576108d1611db6565b5b90600052602060002001548482815481106108f0576108ef611db6565b5b90600052602060002001819055508061090890611e14565b905061089b565b508280548061092157610920611ee6565b5b600190038181906000526020600020016000905590555061094e565b8061094790611e14565b9050610860565b5060016002600085815260200190815260200160002060008282546109739190611e90565b925050819055506004600084815260200190815260200160002060405180606001604052808860ff16815260200187815260200186815250908060018154018082558091505060019003906000526020600020906003020160009091909190915060008201518160000160006101000a81548160ff021916908360ff16021790555060208201518160010155604082015181600201555050600654600260008581526020019081526020016000205403610a885760088390806001815401808255809150506001900390600052602060002001600090919091909150557f0ea33908966f96d518365782d2fa1306f7bfd73860c1affd46f1776c5c03452683604051610a7f91906114fc565b60405180910390a15b6040518060400160405280600281526020017f6f6b0000000000000000000000000000000000000000000000000000000000008152509150505b95945050505050565b6060600360008381526020019081526020016000208054610aeb90611f44565b80601f0160208091040260200160405190810160405280929190818152602001828054610b1790611f44565b8015610b645780601f10610b3957610100808354040283529160200191610b64565b820191906000526020600020905b815481529060010190602001808311610b4757829003601f168201915b50505050509050919050565b6060600060046000848152602001908152602001600020805480602002602001604051908101604052809291908181526020016000905b82821015610c0a57838290600052602060002090600302016040518060600160405290816000820160009054906101000a900460ff1660ff1660ff1681526020016001820154815260200160028201548152505081526020019060010190610ba7565b5050505090506000815167ffffffffffffffff811115610c2d57610c2c6119ad565b5b604051908082528060200260200182016040528015610c5b5781602001602082028036833780820191505090505b50905060005b8251811015610cb957828181518110610c7d57610c7c611db6565b5b602002602001015160400151828281518110610c9c57610c9b611db6565b5b60200260200101818152505080610cb290611e14565b9050610c61565b508092505050919050565b60078181548110610cd457600080fd5b906000526020600020016000915054906101000a900473ffffffffffffffffffffffffffffffffffffffff1681565b6060600060046000848152602001908152602001600020805480602002602001604051908101604052809291908181526020016000905b82821015610d9d57838290600052602060002090600302016040518060600160405290816000820160009054906101000a900460ff1660ff1660ff1681526020016001820154815260200160028201548152505081526020019060010190610d3a565b5050505090506000815167ffffffffffffffff811115610dc057610dbf6119ad565b5b604051908082528060200260200182016040528015610dee5781602001602082028036833780820191505090505b50905060005b8251811015610e5457828181518110610e1057610e0f611db6565b5b602002602001015160000151828281518110610e2f57610e2e611db6565b5b602002602001019060ff16908160ff168152505080610e4d90611e14565b9050610df4565b508092505050919050565b606063b074b86a60e01b8284604051602401610e7c92919061213f565b604051602081830303815290604052907bffffffffffffffffffffffffffffffffffffffffffffffffffffffff19166020820180517bffffffffffffffffffffffffffffffffffffffffffffffffffffffff8381831617835250505050905092915050565b6060600560008373ffffffffffffffffffffffffffffffffffffffff1673ffffffffffffffffffffffffffffffffffffffff168152602001908152602001600020805480602002602001604051908101604052809291908181526020018280548015610f6c57602002820191906000526020600020905b815481526020019060010190808311610f58575b50505050509050919050565b6001600b6000828254610f8b9190611e90565b92505081905550600654600b5410610fc8576006546001600a54610faf9190611e90565b610fb991906121a5565b600a819055506000600b819055505b5050565b6060600180600084815260200190815260200160002060006101000a81548160ff02191690831515021790555063b074b86a60e01b838560405160240161101492919061213f565b604051602081830303815290604052907bffffffffffffffffffffffffffffffffffffffffffffffffffffffff19166020820180517bffffffffffffffffffffffffffffffffffffffffffffffffffffffff838183161783525050505060036000848152602001908152602001600020908051906020019061109792919061124b565b5060005b60065481101561115a5760056000600783815481106110bd576110bc611db6565b5b9060005260206000200160009054906101000a900473ffffffffffffffffffffffffffffffffffffffff1673ffffffffffffffffffffffffffffffffffffffff1673ffffffffffffffffffffffffffffffffffffffff1681526020019081526020016000208390806001815401808255809150506001900390600052602060002001600090919091909150558061115390611e14565b905061109b565b507f478e3fa136daa81a832c4d0d9a274504f3138def98a2f6de618b02845d9d4c9c600360008481526020019081526020016000208360405161119e92919061226b565b60405180910390a16003600083815260200190815260200160002080546111c490611f44565b80601f01602080910402602001604051908101604052809291908181526020018280546111f090611f44565b801561123d5780601f106112125761010080835404028352916020019161123d565b820191906000526020600020905b81548152906001019060200180831161122057829003601f168201915b505050505090509392505050565b82805461125790611f44565b90600052602060002090601f01602090048101928261127957600085556112c0565b82601f1061129257805160ff19168380011785556112c0565b828001600101855582156112c0579182015b828111156112bf5782518255916020019190600101906112a4565b5b5090506112cd91906112d1565b5090565b5b808211156112ea5760008160009055506001016112d2565b5090565b6000604051905090565b600080fd5b600080fd5b6000819050919050565b61131581611302565b811461132057600080fd5b50565b6000813590506113328161130c565b92915050565b60006020828403121561134e5761134d6112f8565b5b600061135c84828501611323565b91505092915050565b600081519050919050565b600082825260208201905092915050565b6000819050602082019050919050565b6000819050919050565b6113a481611391565b82525050565b60006113b6838361139b565b60208301905092915050565b6000602082019050919050565b60006113da82611365565b6113e48185611370565b93506113ef83611381565b8060005b8381101561142057815161140788826113aa565b9750611412836113c2565b9250506001810190506113f3565b5085935050505092915050565b6000602082019050818103600083015261144781846113cf565b905092915050565b600073ffffffffffffffffffffffffffffffffffffffff82169050919050565b600061147a8261144f565b9050919050565b61148a8161146f565b811461149557600080fd5b50565b6000813590506114a781611481565b92915050565b600080604083850312156114c4576114c36112f8565b5b60006114d285828601611498565b92505060206114e385828601611323565b9150509250929050565b6114f681611302565b82525050565b600060208201905061151160008301846114ed565b92915050565b600081519050919050565b600082825260208201905092915050565b6000819050602082019050919050565b61154c81611302565b82525050565b600061155e8383611543565b60208301905092915050565b6000602082019050919050565b600061158282611517565b61158c8185611522565b935061159783611533565b8060005b838110156115c85781516115af8882611552565b97506115ba8361156a565b92505060018101905061159b565b5085935050505092915050565b600060208201905081810360008301526115ef8184611577565b905092915050565b6000806040838503121561160e5761160d6112f8565b5b600061161c85828601611323565b925050602061162d85828601611323565b9150509250929050565b600060ff82169050919050565b61164d81611637565b82525050565b61165c81611391565b82525050565b60006060820190506116776000830186611644565b6116846020830185611653565b6116916040830184611653565b949350505050565b6116a281611637565b81146116ad57600080fd5b50565b6000813590506116bf81611699565b92915050565b6116ce81611391565b81146116d957600080fd5b50565b6000813590506116eb816116c5565b92915050565b600080600080600060a0868803121561170d5761170c6112f8565b5b600061171b88828901611498565b955050602061172c888289016116b0565b945050604061173d888289016116dc565b935050606061174e888289016116dc565b925050608061175f88828901611323565b9150509295509295909350565b600081519050919050565b600082825260208201905092915050565b60005b838110156117a657808201518184015260208101905061178b565b838111156117b5576000848401525b50505050565b6000601f19601f8301169050919050565b60006117d78261176c565b6117e18185611777565b93506117f1818560208601611788565b6117fa816117bb565b840191505092915050565b6000602082019050818103600083015261181f81846117cc565b905092915050565b600081519050919050565b600082825260208201905092915050565b600061184e82611827565b6118588185611832565b9350611868818560208601611788565b611871816117bb565b840191505092915050565b600060208201905081810360008301526118968184611843565b905092915050565b6118a78161146f565b82525050565b60006020820190506118c2600083018461189e565b92915050565b600081519050919050565b600082825260208201905092915050565b6000819050602082019050919050565b6118fd81611637565b82525050565b600061190f83836118f4565b60208301905092915050565b6000602082019050919050565b6000611933826118c8565b61193d81856118d3565b9350611948836118e4565b8060005b838110156119795781516119608882611903565b975061196b8361191b565b92505060018101905061194c565b5085935050505092915050565b600060208201905081810360008301526119a08184611928565b905092915050565b600080fd5b7f4e487b7100000000000000000000000000000000000000000000000000000000600052604160045260246000fd5b6119e5826117bb565b810181811067ffffffffffffffff82111715611a0457611a036119ad565b5b80604052505050565b6000611a176112ee565b9050611a2382826119dc565b919050565b600067ffffffffffffffff821115611a4357611a426119ad565b5b602082029050602081019050919050565b600080fd5b600080fd5b600067ffffffffffffffff821115611a7957611a786119ad565b5b611a82826117bb565b9050602081019050919050565b82818337600083830152505050565b6000611ab1611aac84611a5e565b611a0d565b905082815260208101848484011115611acd57611acc611a59565b5b611ad8848285611a8f565b509392505050565b600082601f830112611af557611af46119a8565b5b8135611b05848260208601611a9e565b91505092915050565b6000611b21611b1c84611a28565b611a0d565b90508083825260208201905060208402830185811115611b4457611b43611a54565b5b835b81811015611b8b57803567ffffffffffffffff811115611b6957611b686119a8565b5b808601611b768982611ae0565b85526020850194505050602081019050611b46565b5050509392505050565b600082601f830112611baa57611ba96119a8565b5b8135611bba848260208601611b0e565b91505092915050565b600067ffffffffffffffff821115611bde57611bdd6119ad565b5b602082029050602081019050919050565b6000611c02611bfd84611bc3565b611a0d565b90508083825260208201905060208402830185811115611c2557611c24611a54565b5b835b81811015611c4e5780611c3a8882611498565b845260208401935050602081019050611c27565b5050509392505050565b600082601f830112611c6d57611c6c6119a8565b5b8135611c7d848260208601611bef565b91505092915050565b60008060408385031215611c9d57611c9c6112f8565b5b600083013567ffffffffffffffff811115611cbb57611cba6112fd565b5b611cc785828601611b95565b925050602083013567ffffffffffffffff811115611ce857611ce76112fd565b5b611cf485828601611c58565b9150509250929050565b600060208284031215611d1457611d136112f8565b5b6000611d2284828501611498565b91505092915050565b600080600060608486031215611d4457611d436112f8565b5b600084013567ffffffffffffffff811115611d6257611d616112fd565b5b611d6e86828701611b95565b935050602084013567ffffffffffffffff811115611d8f57611d8e6112fd565b5b611d9b86828701611c58565b9250506040611dac86828701611323565b9150509250925092565b7f4e487b7100000000000000000000000000000000000000000000000000000000600052603260045260246000fd5b7f4e487b7100000000000000000000000000000000000000000000000000000000600052601160045260246000fd5b6000611e1f82611302565b91507fffffffffffffffffffffffffffffffffffffffffffffffffffffffffffffffff8203611e5157611e50611de5565b5b600182019050919050565b6000611e6782611302565b9150611e7283611302565b925082821015611e8557611e84611de5565b5b828203905092915050565b6000611e9b82611302565b9150611ea683611302565b9250827fffffffffffffffffffffffffffffffffffffffffffffffffffffffffffffffff03821115611edb57611eda611de5565b5b828201905092915050565b7f4e487b7100000000000000000000000000000000000000000000000000000000600052603160045260246000fd5b7f4e487b7100000000000000000000000000000000000000000000000000000000600052602260045260246000fd5b60006002820490506001821680611f5c57607f821691505b602082108103611f6f57611f6e611f15565b5b50919050565b600081519050919050565b600082825260208201905092915050565b6000819050602082019050919050565b611faa8161146f565b82525050565b6000611fbc8383611fa1565b60208301905092915050565b6000602082019050919050565b6000611fe082611f75565b611fea8185611f80565b9350611ff583611f91565b8060005b8381101561202657815161200d8882611fb0565b975061201883611fc8565b925050600181019050611ff9565b5085935050505092915050565b600081519050919050565b600082825260208201905092915050565b6000819050602082019050919050565b600082825260208201905092915050565b600061207b82611827565b612085818561205f565b9350612095818560208601611788565b61209e816117bb565b840191505092915050565b60006120b58383612070565b905092915050565b6000602082019050919050565b60006120d582612033565b6120df818561203e565b9350836020820285016120f18561204f565b8060005b8581101561212d578484038952815161210e85826120a9565b9450612119836120bd565b925060208a019950506001810190506120f5565b50829750879550505050505092915050565b600060408201905081810360008301526121598185611fd5565b9050818103602083015261216d81846120ca565b90509392505050565b7f4e487b7100000000000000000000000000000000000000000000000000000000600052601260045260246000fd5b60006121b082611302565b91506121bb83611302565b9250826121cb576121ca612176565b5b828206905092915050565b60008190508160005260206000209050919050565b600081546121f881611f44565b6122028186611832565b9450600182166000811461221d576001811461222f57612262565b60ff1983168652602086019350612262565b612238856121d6565b60005b8381101561225a5781548189015260018201915060208101905061223b565b808801955050505b50505092915050565b6000604082019050818103600083015261228581856121eb565b905061229460208301846114ed565b939250505056fea26469706673582212208278cce18571f46f6870cb82f16e45277564a74b650dd3c111ca2b5b12d4f9d764736f6c634300080d0033",
  "linkReferences": {},
  "deployedLinkReferences": {}
}