{
  "_format": "hh-sol-artifact-1",
  "contractName": "Verifier",
  "sourceName": "contracts/verifier.sol",
  "abi": [
    {
      "inputs": [
        {
          "internalType": "address[]",
          "name": "_signedComputers",
          "type": "address[]"
        }
      ],
      "stateMutability": "nonpayable",
      "type": "constructor"
    },
    {
      "anonymous": false,
      "inputs": [
        {
          "indexed": false,
          "internalType": "bytes32",
          "name": "",
          "type": "bytes32"
        },
        {
          "indexed": false,
          "internalType": "uint8",
          "name": "",
          "type": "uint8"
        },
        {
          "indexed": false,
          "internalType": "bytes32",
          "name": "",
          "type": "bytes32"
        },
        {
          "indexed": false,
          "internalType": "bytes32",
          "name": "",
          "type": "bytes32"
        }
      ],
      "name": "errorNoSigner",
      "type": "event"
    },
    {
      "anonymous": false,
      "inputs": [
        {
          "indexed": false,
          "internalType": "address",
          "name": "",
          "type": "address"
        }
      ],
      "name": "errorWrongAddress",
      "type": "event"
    },
    {
      "inputs": [
        {
          "internalType": "bytes32",
          "name": "_hashedMessage",
          "type": "bytes32"
        },
        {
          "internalType": "uint8",
          "name": "_v",
          "type": "uint8"
        },
        {
          "internalType": "bytes32",
          "name": "_r",
          "type": "bytes32"
        },
        {
          "internalType": "bytes32",
          "name": "_s",
          "type": "bytes32"
        }
      ],
      "name": "Message",
      "outputs": [
        {
          "internalType": "address",
          "name": "",
          "type": "address"
        }
      ],
      "stateMutability": "nonpayable",
      "type": "function"
    },
    {
      "inputs": [
        {
          "internalType": "bytes32",
          "name": "txBatchData",
          "type": "bytes32"
        },
        {
          "internalType": "uint8[]",
          "name": "_v",
          "type": "uint8[]"
        },
        {
          "internalType": "bytes32[]",
          "name": "_r",
          "type": "bytes32[]"
        },
        {
          "internalType": "bytes32[]",
          "name": "_s",
          "type": "bytes32[]"
        }
      ],
      "name": "Verify",
      "outputs": [
        {
          "internalType": "bool",
          "name": "",
          "type": "bool"
        }
      ],
      "stateMutability": "view",
      "type": "function"
    },
    {
      "inputs": [
        {
          "internalType": "address[]",
          "name": "contractAddrArray",
          "type": "address[]"
        },
        {
          "internalType": "bytes[]",
          "name": "txArray",
          "type": "bytes[]"
        }
      ],
      "name": "executeTransactions",
      "outputs": [],
      "stateMutability": "nonpayable",
      "type": "function"
    },
    {
      "inputs": [
        {
          "internalType": "bytes",
          "name": "txBatchData",
          "type": "bytes"
        }
      ],
      "name": "hello",
      "outputs": [
        {
          "internalType": "bytes",
          "name": "",
          "type": "bytes"
        }
      ],
      "stateMutability": "pure",
      "type": "function"
    },
    {
      "inputs": [
        {
          "internalType": "bytes32",
          "name": "txBatchData",
          "type": "bytes32"
        },
        {
          "internalType": "uint8[]",
          "name": "_v",
          "type": "uint8[]"
        },
        {
          "internalType": "bytes32[]",
          "name": "_r",
          "type": "bytes32[]"
        },
        {
          "internalType": "bytes32[]",
          "name": "_s",
          "type": "bytes32[]"
        }
      ],
      "name": "reVerify",
      "outputs": [],
      "stateMutability": "nonpayable",
      "type": "function"
    },
    {
      "inputs": [
        {
          "internalType": "uint256",
          "name": "",
          "type": "uint256"
        }
      ],
      "name": "signedComputers",
      "outputs": [
        {
          "internalType": "address",
          "name": "",
          "type": "address"
        }
      ],
      "stateMutability": "view",
      "type": "function"
    }
  ],
  "bytecode": "0x60806040523480156200001157600080fd5b506040516200164f3803806200164f8339818101604052810190620000379190620003b1565b80600190805190602001906200004f92919062000115565b5060005b6001805490508110156200010d576001600080600184815481106200007d576200007c62000402565b5b9060005260206000200160009054906101000a900473ffffffffffffffffffffffffffffffffffffffff1673ffffffffffffffffffffffffffffffffffffffff1673ffffffffffffffffffffffffffffffffffffffff16815260200190815260200160002060006101000a81548160ff0219169083151502179055508062000105906200046a565b905062000053565b5050620004b7565b82805482825590600052602060002090810192821562000191579160200282015b82811115620001905782518260006101000a81548173ffffffffffffffffffffffffffffffffffffffff021916908373ffffffffffffffffffffffffffffffffffffffff1602179055509160200191906001019062000136565b5b509050620001a09190620001a4565b5090565b5b80821115620001bf576000816000905550600101620001a5565b5090565b6000604051905090565b600080fd5b600080fd5b600080fd5b6000601f19601f8301169050919050565b7f4e487b7100000000000000000000000000000000000000000000000000000000600052604160045260246000fd5b6200022782620001dc565b810181811067ffffffffffffffff82111715620002495762000248620001ed565b5b80604052505050565b60006200025e620001c3565b90506200026c82826200021c565b919050565b600067ffffffffffffffff8211156200028f576200028e620001ed565b5b602082029050602081019050919050565b600080fd5b600073ffffffffffffffffffffffffffffffffffffffff82169050919050565b6000620002d282620002a5565b9050919050565b620002e481620002c5565b8114620002f057600080fd5b50565b6000815190506200030481620002d9565b92915050565b6000620003216200031b8462000271565b62000252565b90508083825260208201905060208402830185811115620003475762000346620002a0565b5b835b818110156200037457806200035f8882620002f3565b84526020840193505060208101905062000349565b5050509392505050565b600082601f830112620003965762000395620001d7565b5b8151620003a88482602086016200030a565b91505092915050565b600060208284031215620003ca57620003c9620001cd565b5b600082015167ffffffffffffffff811115620003eb57620003ea620001d2565b5b620003f9848285016200037e565b91505092915050565b7f4e487b7100000000000000000000000000000000000000000000000000000000600052603260045260246000fd5b7f4e487b7100000000000000000000000000000000000000000000000000000000600052601160045260246000fd5b6000819050919050565b6000620004778262000460565b91507fffffffffffffffffffffffffffffffffffffffffffffffffffffffffffffffff8203620004ac57620004ab62000431565b5b600182019050919050565b61118880620004c76000396000f3fe608060405234801561001057600080fd5b50600436106100625760003560e01c806335d57b3a146100675780636e634866146100835780637f9dde76146100b35780638a65a487146100e3578063b074b86a14610113578063bdb56da61461012f575b600080fd5b610081600480360381019061007c91906109a6565b61015f565b005b61009d60048036038101906100989190610a61565b6103a1565b6040516100aa9190610b09565b60405180910390f35b6100cd60048036038101906100c89190610b5a565b61046a565b6040516100da9190610b09565b60405180910390f35b6100fd60048036038101906100f891906109a6565b6104a9565b60405161010a9190610ba2565b60405180910390f35b61012d60048036038101906101289190610e42565b61063d565b005b61014960048036038101906101449190610eba565b6106fd565b6040516101569190610f8b565b60405180910390f35b60006040518060400160405280601c81526020017f19457468657265756d205369676e6564204d6573736167653a0a3332000000008152509050600081866040516020016101ae92919061100a565b60405160208183030381529060405280519060200120905060005b85518110156103985760006001838884815181106101ea576101e9611032565b5b602002602001015188858151811061020557610204611032565b5b60200260200101518886815181106102205761021f611032565b5b602002602001015160405160008152602001604052604051610245949392919061107f565b6020604051602081039080840390855afa158015610267573d6000803e3d6000fd5b5050506020604051035190506000808273ffffffffffffffffffffffffffffffffffffffff1673ffffffffffffffffffffffffffffffffffffffff16815260200190815260200160002060009054906101000a900460ff16610386577f9b46b591be06ac93ae166f50ec4f18083de422ed98a745442199a59bb5241b95888884815181106102f8576102f7611032565b5b602002602001015188858151811061031357610312611032565b5b602002602001015188868151811061032e5761032d611032565b5b6020026020010151604051610346949392919061107f565b60405180910390a17fb5674e19deea03ed4fdf6af587ec88aa8b43c0e6d963a77541c8c3c58eaccc7e8160405161037d9190610b09565b60405180910390a15b5080610391906110f3565b90506101c9565b50505050505050565b6000806040518060400160405280601c81526020017f19457468657265756d205369676e6564204d6573736167653a0a3332000000008152509050600081876040516020016103f192919061100a565b60405160208183030381529060405280519060200120905060006001828888886040516000815260200160405260405161042e949392919061107f565b6020604051602081039080840390855afa158015610450573d6000803e3d6000fd5b505050602060405103519050809350505050949350505050565b6001818154811061047a57600080fd5b906000526020600020016000915054906101000a900473ffffffffffffffffffffffffffffffffffffffff1681565b6000806040518060400160405280601c81526020017f19457468657265756d205369676e6564204d6573736167653a0a3332000000008152509050600081876040516020016104f992919061100a565b60405160208183030381529060405280519060200120905060005b865181101561062d57600060018389848151811061053557610534611032565b5b60200260200101518985815181106105505761054f611032565b5b602002602001015189868151811061056b5761056a611032565b5b602002602001015160405160008152602001604052604051610590949392919061107f565b6020604051602081039080840390855afa1580156105b2573d6000803e3d6000fd5b5050506020604051035190506000808273ffffffffffffffffffffffffffffffffffffffff1673ffffffffffffffffffffffffffffffffffffffff16815260200190815260200160002060009054906101000a900460ff1661061b576000945050505050610635565b5080610626906110f3565b9050610514565b506001925050505b949350505050565b60005b81518110156106f85782818151811061065c5761065b611032565b5b602002602001015173ffffffffffffffffffffffffffffffffffffffff1682828151811061068d5761068c611032565b5b60200260200101516040516106a2919061113b565b6000604051808303816000865af19150503d80600081146106df576040519150601f19603f3d011682016040523d82523d6000602084013e6106e4565b606091505b505050806106f1906110f3565b9050610640565b505050565b6060819050919050565b6000604051905090565b600080fd5b600080fd5b6000819050919050565b61072e8161071b565b811461073957600080fd5b50565b60008135905061074b81610725565b92915050565b600080fd5b6000601f19601f8301169050919050565b7f4e487b7100000000000000000000000000000000000000000000000000000000600052604160045260246000fd5b61079f82610756565b810181811067ffffffffffffffff821117156107be576107bd610767565b5b80604052505050565b60006107d1610707565b90506107dd8282610796565b919050565b600067ffffffffffffffff8211156107fd576107fc610767565b5b602082029050602081019050919050565b600080fd5b600060ff82169050919050565b61082981610813565b811461083457600080fd5b50565b60008135905061084681610820565b92915050565b600061085f61085a846107e2565b6107c7565b905080838252602082019050602084028301858111156108825761088161080e565b5b835b818110156108ab57806108978882610837565b845260208401935050602081019050610884565b5050509392505050565b600082601f8301126108ca576108c9610751565b5b81356108da84826020860161084c565b91505092915050565b600067ffffffffffffffff8211156108fe576108fd610767565b5b602082029050602081019050919050565b600061092261091d846108e3565b6107c7565b905080838252602082019050602084028301858111156109455761094461080e565b5b835b8181101561096e578061095a888261073c565b845260208401935050602081019050610947565b5050509392505050565b600082601f83011261098d5761098c610751565b5b813561099d84826020860161090f565b91505092915050565b600080600080608085870312156109c0576109bf610711565b5b60006109ce8782880161073c565b945050602085013567ffffffffffffffff8111156109ef576109ee610716565b5b6109fb878288016108b5565b935050604085013567ffffffffffffffff811115610a1c57610a1b610716565b5b610a2887828801610978565b925050606085013567ffffffffffffffff811115610a4957610a48610716565b5b610a5587828801610978565b91505092959194509250565b60008060008060808587031215610a7b57610a7a610711565b5b6000610a898782880161073c565b9450506020610a9a87828801610837565b9350506040610aab8782880161073c565b9250506060610abc8782880161073c565b91505092959194509250565b600073ffffffffffffffffffffffffffffffffffffffff82169050919050565b6000610af382610ac8565b9050919050565b610b0381610ae8565b82525050565b6000602082019050610b1e6000830184610afa565b92915050565b6000819050919050565b610b3781610b24565b8114610b4257600080fd5b50565b600081359050610b5481610b2e565b92915050565b600060208284031215610b7057610b6f610711565b5b6000610b7e84828501610b45565b91505092915050565b60008115159050919050565b610b9c81610b87565b82525050565b6000602082019050610bb76000830184610b93565b92915050565b600067ffffffffffffffff821115610bd857610bd7610767565b5b602082029050602081019050919050565b610bf281610ae8565b8114610bfd57600080fd5b50565b600081359050610c0f81610be9565b92915050565b6000610c28610c2384610bbd565b6107c7565b90508083825260208201905060208402830185811115610c4b57610c4a61080e565b5b835b81811015610c745780610c608882610c00565b845260208401935050602081019050610c4d565b5050509392505050565b600082601f830112610c9357610c92610751565b5b8135610ca3848260208601610c15565b91505092915050565b600067ffffffffffffffff821115610cc757610cc6610767565b5b602082029050602081019050919050565b600080fd5b600067ffffffffffffffff821115610cf857610cf7610767565b5b610d0182610756565b9050602081019050919050565b82818337600083830152505050565b6000610d30610d2b84610cdd565b6107c7565b905082815260208101848484011115610d4c57610d4b610cd8565b5b610d57848285610d0e565b509392505050565b600082601f830112610d7457610d73610751565b5b8135610d84848260208601610d1d565b91505092915050565b6000610da0610d9b84610cac565b6107c7565b90508083825260208201905060208402830185811115610dc357610dc261080e565b5b835b81811015610e0a57803567ffffffffffffffff811115610de857610de7610751565b5b808601610df58982610d5f565b85526020850194505050602081019050610dc5565b5050509392505050565b600082601f830112610e2957610e28610751565b5b8135610e39848260208601610d8d565b91505092915050565b60008060408385031215610e5957610e58610711565b5b600083013567ffffffffffffffff811115610e7757610e76610716565b5b610e8385828601610c7e565b925050602083013567ffffffffffffffff811115610ea457610ea3610716565b5b610eb085828601610e14565b9150509250929050565b600060208284031215610ed057610ecf610711565b5b600082013567ffffffffffffffff811115610eee57610eed610716565b5b610efa84828501610d5f565b91505092915050565b600081519050919050565b600082825260208201905092915050565b60005b83811015610f3d578082015181840152602081019050610f22565b83811115610f4c576000848401525b50505050565b6000610f5d82610f03565b610f678185610f0e565b9350610f77818560208601610f1f565b610f8081610756565b840191505092915050565b60006020820190508181036000830152610fa58184610f52565b905092915050565b600081905092915050565b6000610fc382610f03565b610fcd8185610fad565b9350610fdd818560208601610f1f565b80840191505092915050565b6000819050919050565b611004610fff8261071b565b610fe9565b82525050565b60006110168285610fb8565b91506110228284610ff3565b6020820191508190509392505050565b7f4e487b7100000000000000000000000000000000000000000000000000000000600052603260045260246000fd5b61106a8161071b565b82525050565b61107981610813565b82525050565b60006080820190506110946000830187611061565b6110a16020830186611070565b6110ae6040830185611061565b6110bb6060830184611061565b95945050505050565b7f4e487b7100000000000000000000000000000000000000000000000000000000600052601160045260246000fd5b60006110fe82610b24565b91507fffffffffffffffffffffffffffffffffffffffffffffffffffffffffffffffff82036111305761112f6110c4565b5b600182019050919050565b60006111478284610fb8565b91508190509291505056fea26469706673582212200b10a7a150c4afad2d3b6d7bddd11b44556d30a7e57cf89cfce3239277b1484c64736f6c634300080d0033",
  "linkReferences": {},
  "deployedLinkReferences": {}
}